{
  "contractName": "SolnSquareVerifier",
  "abi": [
    {
      "constant": true,
      "inputs": [
        {
          "name": "interfaceId",
          "type": "bytes4"
        }
      ],
      "name": "supportsInterface",
      "outputs": [
        {
          "name": "",
          "type": "bool"
        }
      ],
      "payable": false,
      "stateMutability": "view",
      "type": "function"
    },
    {
      "constant": false,
      "inputs": [
        {
          "name": "val",
          "type": "bool"
        }
      ],
      "name": "pause",
      "outputs": [],
      "payable": false,
      "stateMutability": "nonpayable",
      "type": "function"
    },
    {
      "constant": true,
      "inputs": [],
      "name": "name",
      "outputs": [
        {
          "name": "",
          "type": "string"
        }
      ],
      "payable": false,
      "stateMutability": "view",
      "type": "function"
    },
    {
      "constant": true,
      "inputs": [
        {
          "name": "tokenId",
          "type": "uint256"
        }
      ],
      "name": "getApproved",
      "outputs": [
        {
          "name": "",
          "type": "address"
        }
      ],
      "payable": false,
      "stateMutability": "view",
      "type": "function"
    },
    {
      "constant": false,
      "inputs": [
        {
          "name": "to",
          "type": "address"
        },
        {
          "name": "tokenId",
          "type": "uint256"
        }
      ],
      "name": "approve",
      "outputs": [],
      "payable": false,
      "stateMutability": "nonpayable",
      "type": "function"
    },
    {
      "constant": true,
      "inputs": [],
      "name": "totalSupply",
      "outputs": [
        {
          "name": "",
          "type": "uint256"
        }
      ],
      "payable": false,
      "stateMutability": "view",
      "type": "function"
    },
    {
      "constant": true,
      "inputs": [],
      "name": "basetokenURI",
      "outputs": [
        {
          "name": "",
          "type": "string"
        }
      ],
      "payable": false,
      "stateMutability": "view",
      "type": "function"
    },
    {
      "constant": false,
      "inputs": [
        {
          "name": "from",
          "type": "address"
        },
        {
          "name": "to",
          "type": "address"
        },
        {
          "name": "tokenId",
          "type": "uint256"
        }
      ],
      "name": "transferFrom",
      "outputs": [],
      "payable": false,
      "stateMutability": "nonpayable",
      "type": "function"
    },
    {
      "constant": false,
      "inputs": [
        {
          "name": "_myid",
          "type": "bytes32"
        },
        {
          "name": "_result",
          "type": "string"
        }
      ],
      "name": "__callback",
      "outputs": [],
      "payable": false,
      "stateMutability": "nonpayable",
      "type": "function"
    },
    {
      "constant": true,
      "inputs": [
        {
          "name": "owner",
          "type": "address"
        },
        {
          "name": "index",
          "type": "uint256"
        }
      ],
      "name": "tokenOfOwnerByIndex",
      "outputs": [
        {
          "name": "",
          "type": "uint256"
        }
      ],
      "payable": false,
      "stateMutability": "view",
      "type": "function"
    },
    {
      "constant": false,
      "inputs": [
        {
          "name": "_myid",
          "type": "bytes32"
        },
        {
          "name": "_result",
          "type": "string"
        },
        {
          "name": "_proof",
          "type": "bytes"
        }
      ],
      "name": "__callback",
      "outputs": [],
      "payable": false,
      "stateMutability": "nonpayable",
      "type": "function"
    },
    {
      "constant": false,
      "inputs": [
        {
          "name": "to",
          "type": "address"
        },
        {
          "name": "tokenId",
          "type": "uint256"
        }
      ],
      "name": "mint",
      "outputs": [
        {
          "name": "",
          "type": "bool"
        }
      ],
      "payable": false,
      "stateMutability": "nonpayable",
      "type": "function"
    },
    {
      "constant": false,
      "inputs": [
        {
          "name": "from",
          "type": "address"
        },
        {
          "name": "to",
          "type": "address"
        },
        {
          "name": "tokenId",
          "type": "uint256"
        }
      ],
      "name": "safeTransferFrom",
      "outputs": [],
      "payable": false,
      "stateMutability": "nonpayable",
      "type": "function"
    },
    {
      "constant": true,
      "inputs": [
        {
          "name": "index",
          "type": "uint256"
        }
      ],
      "name": "tokenByIndex",
      "outputs": [
        {
          "name": "",
          "type": "uint256"
        }
      ],
      "payable": false,
      "stateMutability": "view",
      "type": "function"
    },
    {
      "constant": true,
      "inputs": [
        {
          "name": "tokenId",
          "type": "uint256"
        }
      ],
      "name": "ownerOf",
      "outputs": [
        {
          "name": "",
          "type": "address"
        }
      ],
      "payable": false,
      "stateMutability": "view",
      "type": "function"
    },
    {
      "constant": true,
      "inputs": [
        {
          "name": "owner",
          "type": "address"
        }
      ],
      "name": "balanceOf",
      "outputs": [
        {
          "name": "",
          "type": "uint256"
        }
      ],
      "payable": false,
      "stateMutability": "view",
      "type": "function"
    },
    {
      "constant": true,
      "inputs": [],
      "name": "owner",
      "outputs": [
        {
          "name": "",
          "type": "address"
        }
      ],
      "payable": false,
      "stateMutability": "view",
      "type": "function"
    },
    {
      "constant": true,
      "inputs": [],
      "name": "symbol",
      "outputs": [
        {
          "name": "",
          "type": "string"
        }
      ],
      "payable": false,
      "stateMutability": "view",
      "type": "function"
    },
    {
      "constant": false,
      "inputs": [
        {
          "name": "to",
          "type": "address"
        },
        {
          "name": "approved",
          "type": "bool"
        }
      ],
      "name": "setApprovalForAll",
      "outputs": [],
      "payable": false,
      "stateMutability": "nonpayable",
      "type": "function"
    },
    {
      "constant": false,
      "inputs": [
        {
          "name": "from",
          "type": "address"
        },
        {
          "name": "to",
          "type": "address"
        },
        {
          "name": "tokenId",
          "type": "uint256"
        },
        {
          "name": "_data",
          "type": "bytes"
        }
      ],
      "name": "safeTransferFrom",
      "outputs": [],
      "payable": false,
      "stateMutability": "nonpayable",
      "type": "function"
    },
    {
      "constant": true,
      "inputs": [
        {
          "name": "tokenId",
          "type": "uint256"
        }
      ],
      "name": "tokenURI",
      "outputs": [
        {
          "name": "",
          "type": "string"
        }
      ],
      "payable": false,
      "stateMutability": "view",
      "type": "function"
    },
    {
      "constant": true,
      "inputs": [],
      "name": "verifierContract",
      "outputs": [
        {
          "name": "",
          "type": "address"
        }
      ],
      "payable": false,
      "stateMutability": "view",
      "type": "function"
    },
    {
      "constant": true,
      "inputs": [
        {
          "name": "owner",
          "type": "address"
        },
        {
          "name": "operator",
          "type": "address"
        }
      ],
      "name": "isApprovedForAll",
      "outputs": [
        {
          "name": "",
          "type": "bool"
        }
      ],
      "payable": false,
      "stateMutability": "view",
      "type": "function"
    },
    {
      "constant": false,
      "inputs": [
        {
          "name": "newOwner",
          "type": "address"
        }
      ],
      "name": "transferOwnership",
      "outputs": [],
      "payable": false,
      "stateMutability": "nonpayable",
      "type": "function"
    },
    {
      "inputs": [
        {
          "name": "verifierAddress",
          "type": "address"
        }
      ],
      "payable": false,
      "stateMutability": "nonpayable",
      "type": "constructor"
    },
    {
      "anonymous": false,
      "inputs": [
        {
          "indexed": false,
          "name": "tokenid",
          "type": "uint256"
        },
        {
          "indexed": false,
          "name": "to",
          "type": "address"
        }
      ],
      "name": "SolutionAdded",
      "type": "event"
    },
    {
      "anonymous": false,
      "inputs": [
        {
          "indexed": true,
          "name": "from",
          "type": "address"
        },
        {
          "indexed": true,
          "name": "to",
          "type": "address"
        },
        {
          "indexed": true,
          "name": "tokenId",
          "type": "uint256"
        }
      ],
      "name": "Transfer",
      "type": "event"
    },
    {
      "anonymous": false,
      "inputs": [
        {
          "indexed": true,
          "name": "owner",
          "type": "address"
        },
        {
          "indexed": true,
          "name": "approved",
          "type": "address"
        },
        {
          "indexed": true,
          "name": "tokenId",
          "type": "uint256"
        }
      ],
      "name": "Approval",
      "type": "event"
    },
    {
      "anonymous": false,
      "inputs": [
        {
          "indexed": true,
          "name": "owner",
          "type": "address"
        },
        {
          "indexed": true,
          "name": "operator",
          "type": "address"
        },
        {
          "indexed": false,
          "name": "approved",
          "type": "bool"
        }
      ],
      "name": "ApprovalForAll",
      "type": "event"
    },
    {
      "anonymous": false,
      "inputs": [
        {
          "indexed": false,
          "name": "from",
          "type": "address"
        }
      ],
      "name": "Paused",
      "type": "event"
    },
    {
      "anonymous": false,
      "inputs": [
        {
          "indexed": false,
          "name": "from",
          "type": "address"
        }
      ],
      "name": "Unpaused",
      "type": "event"
    },
    {
      "anonymous": false,
      "inputs": [
        {
          "indexed": false,
          "name": "newOwner",
          "type": "address"
        }
      ],
      "name": "OwnershipTransferred",
      "type": "event"
    },
    {
      "constant": false,
      "inputs": [
        {
          "name": "_to",
          "type": "address"
        },
        {
          "name": "_tokenId",
          "type": "uint256"
        },
        {
          "name": "key",
          "type": "bytes32"
        }
      ],
      "name": "AddSolution",
      "outputs": [],
      "payable": false,
      "stateMutability": "nonpayable",
      "type": "function"
    },
    {
      "constant": false,
      "inputs": [
        {
          "name": "_to",
          "type": "address"
        },
        {
          "name": "_tokenId",
          "type": "uint256"
        },
        {
          "name": "a",
          "type": "uint256[2]"
        },
        {
          "name": "a_p",
          "type": "uint256[2]"
        },
        {
          "name": "b",
          "type": "uint256[2][2]"
        },
        {
          "name": "b_p",
          "type": "uint256[2]"
        },
        {
          "name": "c",
          "type": "uint256[2]"
        },
        {
          "name": "c_p",
          "type": "uint256[2]"
        },
        {
          "name": "h",
          "type": "uint256[2]"
        },
        {
          "name": "k",
          "type": "uint256[2]"
        },
        {
          "name": "input",
          "type": "uint256[2]"
        }
      ],
      "name": "CheckSolMintToken",
      "outputs": [],
      "payable": false,
      "stateMutability": "nonpayable",
      "type": "function"
    },
    {
      "constant": false,
      "inputs": [
        {
          "name": "_to",
          "type": "address"
        },
        {
          "name": "_tokenId",
          "type": "uint256"
        },
        {
          "name": "a",
          "type": "uint256[2]"
        },
        {
          "name": "a_p",
          "type": "uint256[2]"
        },
        {
          "name": "b",
          "type": "uint256[2][2]"
        },
        {
          "name": "b_p",
          "type": "uint256[2]"
        },
        {
          "name": "c",
          "type": "uint256[2]"
        },
        {
          "name": "c_p",
          "type": "uint256[2]"
        },
        {
          "name": "h",
          "type": "uint256[2]"
        },
        {
          "name": "k",
          "type": "uint256[2]"
        },
        {
          "name": "input",
          "type": "uint256[2]"
        }
      ],
      "name": "mintToken",
      "outputs": [],
      "payable": false,
      "stateMutability": "nonpayable",
      "type": "function"
    }
  ],
  "bytecode": "0x60806040523480156200001157600080fd5b5060405160208062004531833981018060405260208110156200003357600080fd5b8101908080519060200190929190505050604051806060016040528060228152602001620044d0602291396040518060400160405280600481526020017f434d4254000000000000000000000000000000000000000000000000000000008152506040518060600160405280603f8152602001620044f2603f9139336000806101000a81548173ffffffffffffffffffffffffffffffffffffffff021916908373ffffffffffffffffffffffffffffffffffffffff1602179055507f04dba622d284ed0014ee4b9a6a68386be1a4c08a4913ae272de89199cc6861636000809054906101000a900473ffffffffffffffffffffffffffffffffffffffff16604051808273ffffffffffffffffffffffffffffffffffffffff1673ffffffffffffffffffffffffffffffffffffffff16815260200191505060405180910390a160008060146101000a81548160ff021916908315150217905550620001a46301ffc9a760e01b6200028260201b60201c565b620001bc6380ac58cd60e01b6200028260201b60201c565b620001d463780e9d6360e01b6200028260201b60201c565b82600f9080519060200190620001ec92919062000322565b5081601090805190602001906200020592919062000322565b5080601190805190602001906200021e92919062000322565b5062000237635b5e139f60e01b6200028260201b60201c565b50505080601360006101000a81548173ffffffffffffffffffffffffffffffffffffffff021916908373ffffffffffffffffffffffffffffffffffffffff16021790555050620003d1565b63ffffffff60e01b817bffffffffffffffffffffffffffffffffffffffffffffffffffffffff19161415620002b657600080fd5b6001806000837bffffffffffffffffffffffffffffffffffffffffffffffffffffffff19167bffffffffffffffffffffffffffffffffffffffffffffffffffffffff1916815260200190815260200160002060006101000a81548160ff02191690831515021790555050565b828054600181600116156101000203166002900490600052602060002090601f016020900481019282601f106200036557805160ff191683800117855562000396565b8280016001018555821562000396579182015b828111156200039557825182559160200191906001019062000378565b5b509050620003a59190620003a9565b5090565b620003ce91905b80821115620003ca576000816000905550600101620003b0565b5090565b90565b6140ef80620003e16000396000f3fe608060405234801561001057600080fd5b50600436106101a95760003560e01c806342842e0e116100f9578063ad9ff2f911610097578063c87b56dd11610071578063c87b56dd1461110a578063cf695688146111b1578063e985e9c5146111fb578063f2fde38b14611277576101a9565b8063ad9ff2f914610cdd578063b88d4fde14610fad578063b9bec946146110b2576101a9565b806370a08231116100d357806370a0823114610b685780638da5cb5b14610bc057806395d89b4114610c0a578063a22cb46514610c8d576101a9565b806342842e0e14610a4a5780634f6ccce714610ab85780636352211e14610afa576101a9565b8063232fb07d116101665780632f745c59116101405780632f745c59146105565780632f89bff8146105b857806338bbfa501461088857806340c10f19146109e4576101a9565b8063232fb07d146103a057806323b872dd1461042357806327dc297e14610491576101a9565b806301ffc9a7146101ae57806302329a291461021357806306fdde0314610243578063081812fc146102c6578063095ea7b31461033457806318160ddd14610382575b600080fd5b6101f9600480360360208110156101c457600080fd5b8101908080357bffffffffffffffffffffffffffffffffffffffffffffffffffffffff191690602001909291905050506112bb565b604051808215151515815260200191505060405180910390f35b6102416004803603602081101561022957600080fd5b81019080803515159060200190929190505050611323565b005b61024b6114d4565b6040518080602001828103825283818151815260200191508051906020019080838360005b8381101561028b578082015181840152602081019050610270565b50505050905090810190601f1680156102b85780820380516001836020036101000a031916815260200191505b509250505060405180910390f35b6102f2600480360360208110156102dc57600080fd5b8101908080359060200190929190505050611576565b604051808273ffffffffffffffffffffffffffffffffffffffff1673ffffffffffffffffffffffffffffffffffffffff16815260200191505060405180910390f35b6103806004803603604081101561034a57600080fd5b81019080803573ffffffffffffffffffffffffffffffffffffffff169060200190929190803590602001909291905050506115b3565b005b61038a6117a9565b6040518082815260200191505060405180910390f35b6103a86117b6565b6040518080602001828103825283818151815260200191508051906020019080838360005b838110156103e85780820151818401526020810190506103cd565b50505050905090810190601f1680156104155780820380516001836020036101000a031916815260200191505b509250505060405180910390f35b61048f6004803603606081101561043957600080fd5b81019080803573ffffffffffffffffffffffffffffffffffffffff169060200190929190803573ffffffffffffffffffffffffffffffffffffffff16906020019092919080359060200190929190505050611858565b005b610554600480360360408110156104a757600080fd5b8101908080359060200190929190803590602001906401000000008111156104ce57600080fd5b8201836020820111156104e057600080fd5b8035906020019184600183028401116401000000008311171561050257600080fd5b91908080601f016020809104026020016040519081016040528093929190818152602001838380828437600081840152601f19601f82011690508083019250505050505050919291929050505061187b565b005b6105a26004803603604081101561056c57600080fd5b81019080803573ffffffffffffffffffffffffffffffffffffffff169060200190929190803590602001909291905050506118be565b6040518082815260200191505060405180910390f35b61088660048036036102c08110156105cf57600080fd5b81019080803573ffffffffffffffffffffffffffffffffffffffff1690602001909291908035906020019092919080604001906002806020026040519081016040528092919082600260200280828437600081840152601f19601f820116905080830192505050505050919291929080604001906002806020026040519081016040528092919082600260200280828437600081840152601f19601f82011690508083019250505050505091929192908060800190600280602002604051908101604052809291906000905b828210156106ef578382604002016002806020026040519081016040528092919082600260200280828437600081840152601f19601f8201169050808301925050505050508152602001906001019061069b565b50505050919291929080604001906002806020026040519081016040528092919082600260200280828437600081840152601f19601f820116905080830192505050505050919291929080604001906002806020026040519081016040528092919082600260200280828437600081840152601f19601f820116905080830192505050505050919291929080604001906002806020026040519081016040528092919082600260200280828437600081840152601f19601f820116905080830192505050505050919291929080604001906002806020026040519081016040528092919082600260200280828437600081840152601f19601f820116905080830192505050505050919291929080604001906002806020026040519081016040528092919082600260200280828437600081840152601f19601f820116905080830192505050505050919291929080604001906002806020026040519081016040528092919082600260200280828437600081840152601f19601f8201169050808301925050505050509192919290505050611931565b005b6109e26004803603606081101561089e57600080fd5b8101908080359060200190929190803590602001906401000000008111156108c557600080fd5b8201836020820111156108d757600080fd5b803590602001918460018302840111640100000000831117156108f957600080fd5b91908080601f016020809104026020016040519081016040528093929190818152602001838380828437600081840152601f19601f8201169050808301925050505050505091929192908035906020019064010000000081111561095c57600080fd5b82018360208201111561096e57600080fd5b8035906020019184600183028401116401000000008311171561099057600080fd5b91908080601f016020809104026020016040519081016040528093929190818152602001838380828437600081840152601f19601f820116905080830192505050505050509192919290505050611f10565b005b610a30600480360360408110156109fa57600080fd5b81019080803573ffffffffffffffffffffffffffffffffffffffff16906020019092919080359060200190929190505050611f15565b604051808215151515815260200191505060405180910390f35b610ab660048036036060811015610a6057600080fd5b81019080803573ffffffffffffffffffffffffffffffffffffffff169060200190929190803573ffffffffffffffffffffffffffffffffffffffff16906020019092919080359060200190929190505050611ff6565b005b610ae460048036036020811015610ace57600080fd5b8101908080359060200190929190505050612016565b6040518082815260200191505060405180910390f35b610b2660048036036020811015610b1057600080fd5b810190808035906020019092919050505061204a565b604051808273ffffffffffffffffffffffffffffffffffffffff1673ffffffffffffffffffffffffffffffffffffffff16815260200191505060405180910390f35b610baa60048036036020811015610b7e57600080fd5b81019080803573ffffffffffffffffffffffffffffffffffffffff1690602001909291905050506120c6565b6040518082815260200191505060405180910390f35b610bc8612116565b604051808273ffffffffffffffffffffffffffffffffffffffff1673ffffffffffffffffffffffffffffffffffffffff16815260200191505060405180910390f35b610c1261213f565b6040518080602001828103825283818151815260200191508051906020019080838360005b83811015610c52578082015181840152602081019050610c37565b50505050905090810190601f168015610c7f5780820380516001836020036101000a031916815260200191505b509250505060405180910390f35b610cdb60048036036040811015610ca357600080fd5b81019080803573ffffffffffffffffffffffffffffffffffffffff1690602001909291908035151590602001909291905050506121e1565b005b610fab60048036036102c0811015610cf457600080fd5b81019080803573ffffffffffffffffffffffffffffffffffffffff1690602001909291908035906020019092919080604001906002806020026040519081016040528092919082600260200280828437600081840152601f19601f820116905080830192505050505050919291929080604001906002806020026040519081016040528092919082600260200280828437600081840152601f19601f82011690508083019250505050505091929192908060800190600280602002604051908101604052809291906000905b82821015610e14578382604002016002806020026040519081016040528092919082600260200280828437600081840152601f19601f82011690508083019250505050505081526020019060010190610dc0565b50505050919291929080604001906002806020026040519081016040528092919082600260200280828437600081840152601f19601f820116905080830192505050505050919291929080604001906002806020026040519081016040528092919082600260200280828437600081840152601f19601f820116905080830192505050505050919291929080604001906002806020026040519081016040528092919082600260200280828437600081840152601f19601f820116905080830192505050505050919291929080604001906002806020026040519081016040528092919082600260200280828437600081840152601f19601f820116905080830192505050505050919291929080604001906002806020026040519081016040528092919082600260200280828437600081840152601f19601f820116905080830192505050505050919291929080604001906002806020026040519081016040528092919082600260200280828437600081840152601f19601f820116905080830192505050505050919291929050505061231b565b005b6110b060048036036080811015610fc357600080fd5b81019080803573ffffffffffffffffffffffffffffffffffffffff169060200190929190803573ffffffffffffffffffffffffffffffffffffffff169060200190929190803590602001909291908035906020019064010000000081111561102a57600080fd5b82018360208201111561103c57600080fd5b8035906020019184600183028401116401000000008311171561105e57600080fd5b91908080601f016020809104026020016040519081016040528093929190818152602001838380828437600081840152601f19601f8201169050808301925050505050505091929192905050506128ef565b005b611108600480360360608110156110c857600080fd5b81019080803573ffffffffffffffffffffffffffffffffffffffff1690602001909291908035906020019092919080359060200190929190505050612915565b005b6111366004803603602081101561112057600080fd5b8101908080359060200190929190505050612aa5565b6040518080602001828103825283818151815260200191508051906020019080838360005b8381101561117657808201518184015260208101905061115b565b50505050905090810190601f1680156111a35780820380516001836020036101000a031916815260200191505b509250505060405180910390f35b6111b9612b6c565b604051808273ffffffffffffffffffffffffffffffffffffffff1673ffffffffffffffffffffffffffffffffffffffff16815260200191505060405180910390f35b61125d6004803603604081101561121157600080fd5b81019080803573ffffffffffffffffffffffffffffffffffffffff169060200190929190803573ffffffffffffffffffffffffffffffffffffffff169060200190929190505050612b92565b604051808215151515815260200191505060405180910390f35b6112b96004803603602081101561128d57600080fd5b81019080803573ffffffffffffffffffffffffffffffffffffffff169060200190929190505050612c26565b005b600060016000837bffffffffffffffffffffffffffffffffffffffffffffffffffffffff19167bffffffffffffffffffffffffffffffffffffffffffffffffffffffff1916815260200190815260200160002060009054906101000a900460ff169050919050565b6000809054906101000a900473ffffffffffffffffffffffffffffffffffffffff1673ffffffffffffffffffffffffffffffffffffffff163373ffffffffffffffffffffffffffffffffffffffff16146113e5576040517f08c379a000000000000000000000000000000000000000000000000000000000815260040180806020018281038252601e8152602001807f43616c6c6572206973206e6f74206120636f6e7472616374206f776e6572000081525060200191505060405180910390fd5b80600060146101000a81548160ff021916908315150217905550801561146d577f62e78cea01bee320cd4e420270b5ea74000d11b0c9f74754ebdbfc544b05a25833604051808273ffffffffffffffffffffffffffffffffffffffff1673ffffffffffffffffffffffffffffffffffffffff16815260200191505060405180910390a16114d1565b7f5db9ee0a495bf2e6ff9c91a7834c1ba4fdd244a5e8aa4e537bd38aeae4b073aa33604051808273ffffffffffffffffffffffffffffffffffffffff1673ffffffffffffffffffffffffffffffffffffffff16815260200191505060405180910390a15b50565b6060600f8054600181600116156101000203166002900480601f01602080910402602001604051908101604052809291908181526020018280546001816001161561010002031660029004801561156c5780601f106115415761010080835404028352916020019161156c565b820191906000526020600020905b81548152906001019060200180831161154f57829003601f168201915b5050505050905090565b60006003600083815260200190815260200160002060009054906101000a900473ffffffffffffffffffffffffffffffffffffffff169050919050565b60006115be8261204a565b90508073ffffffffffffffffffffffffffffffffffffffff168373ffffffffffffffffffffffffffffffffffffffff161415611645576040517f08c379a00000000000000000000000000000000000000000000000000000000081526004018080602001828103825260308152602001806140946030913960400191505060405180910390fd5b8073ffffffffffffffffffffffffffffffffffffffff163373ffffffffffffffffffffffffffffffffffffffff16148061168557506116848133612b92565b5b6116f7576040517f08c379a00000000000000000000000000000000000000000000000000000000081526004018080602001828103825260208152602001807f4e6f7720616c6c6f77656420746f20617070726f76652061646472657373657381525060200191505060405180910390fd5b826003600084815260200190815260200160002060006101000a81548173ffffffffffffffffffffffffffffffffffffffff021916908373ffffffffffffffffffffffffffffffffffffffff160217905550818373ffffffffffffffffffffffffffffffffffffffff163373ffffffffffffffffffffffffffffffffffffffff167f8c5be1e5ebec7d5bd14f71427d1e84f3dd0314c0f7b2291e5b200ac8c7c3b92560405160405180910390a4505050565b6000600880549050905090565b606060118054600181600116156101000203166002900480601f01602080910402602001604051908101604052809291908181526020018280546001816001161561010002031660029004801561184e5780601f106118235761010080835404028352916020019161184e565b820191906000526020600020905b81548152906001019060200180831161183157829003601f168201915b5050505050905090565b6118623382612dc8565b61186b57600080fd5b611876838383612e5d565b505050565b6118ba828260006040519080825280601f01601f1916602001820160405280156118b45781602001600182028038833980820191505090505b50611f10565b5050565b60006118c9836120c6565b82106118d457600080fd5b600660008473ffffffffffffffffffffffffffffffffffffffff1673ffffffffffffffffffffffffffffffffffffffff168152602001908152602001600020828154811061191e57fe5b9060005260206000200154905092915050565b6000898989898989898989604051602001808a600260200280838360005b8381101561196a57808201518184015260208101905061194f565b5050505090500189600260200280838360005b8381101561199857808201518184015260208101905061197d565b505050509050018860026000925b818410156119ec5782846020020151600260200280838360005b838110156119db5780820151818401526020810190506119c0565b5050505090500192600101926119a6565b9250505087600260200280838360005b83811015611a175780820151818401526020810190506119fc565b5050505090500186600260200280838360005b83811015611a45578082015181840152602081019050611a2a565b5050505090500185600260200280838360005b83811015611a73578082015181840152602081019050611a58565b5050505090500184600260200280838360005b83811015611aa1578082015181840152602081019050611a86565b5050505090500183600260200280838360005b83811015611acf578082015181840152602081019050611ab4565b5050505090500182600260200280838360005b83811015611afd578082015181840152602081019050611ae2565b505050509050019950505050505050505050604051602081830303815290604052805190602001209050600073ffffffffffffffffffffffffffffffffffffffff166015600083815260200190815260200160002060010160009054906101000a900473ffffffffffffffffffffffffffffffffffffffff1673ffffffffffffffffffffffffffffffffffffffff1614611bff576040517f08c379a000000000000000000000000000000000000000000000000000000000815260040180806020018281038252601d8152602001807f54686520736f6c7574696f6e20697320616c726561647920757365642e00000081525060200191505060405180910390fd5b601360009054906101000a900473ffffffffffffffffffffffffffffffffffffffff1673ffffffffffffffffffffffffffffffffffffffff1663fe01ff628b8b8b8b8b8b8b8b8b6040518a63ffffffff1660e01b8152600401808a600260200280838360005b83811015611c80578082015181840152602081019050611c65565b5050505090500189600260200280838360005b83811015611cae578082015181840152602081019050611c93565b505050509050018860026000925b81841015611d025782846020020151600260200280838360005b83811015611cf1578082015181840152602081019050611cd6565b505050509050019260010192611cbc565b9250505087600260200280838360005b83811015611d2d578082015181840152602081019050611d12565b5050505090500186600260200280838360005b83811015611d5b578082015181840152602081019050611d40565b5050505090500185600260200280838360005b83811015611d89578082015181840152602081019050611d6e565b5050505090500184600260200280838360005b83811015611db7578082015181840152602081019050611d9c565b5050505090500183600260200280838360005b83811015611de5578082015181840152602081019050611dca565b5050505090500182600260200280838360005b83811015611e13578082015181840152602081019050611df8565b505050509050019950505050505050505050602060405180830381600087803b158015611e3f57600080fd5b505af1158015611e53573d6000803e3d6000fd5b505050506040513d6020811015611e6957600080fd5b8101908080519060200190929190505050611eec576040517f08c379a000000000000000000000000000000000000000000000000000000000815260040180806020018281038252601e8152602001807f5468697320736f6c7574696f6e20697320616c726561647920757365642e000081525060200191505060405180910390fd5b611ef78c8c83612915565b611f018c8c611f15565b50505050505050505050505050565b505050565b60008060009054906101000a900473ffffffffffffffffffffffffffffffffffffffff1673ffffffffffffffffffffffffffffffffffffffff163373ffffffffffffffffffffffffffffffffffffffff1614611fd9576040517f08c379a000000000000000000000000000000000000000000000000000000000815260040180806020018281038252601e8152602001807f43616c6c6572206973206e6f74206120636f6e7472616374206f776e6572000081525060200191505060405180910390fd5b611fe38383612e81565b611fec82612ea2565b6001905092915050565b612011838383604051806020016040528060008152506128ef565b505050565b60006120206117a9565b821061202b57600080fd5b6008828154811061203857fe5b90600052602060002001549050919050565b6000806002600084815260200190815260200160002060009054906101000a900473ffffffffffffffffffffffffffffffffffffffff169050600073ffffffffffffffffffffffffffffffffffffffff168173ffffffffffffffffffffffffffffffffffffffff1614156120bd57600080fd5b80915050919050565b600061210f600460008473ffffffffffffffffffffffffffffffffffffffff1673ffffffffffffffffffffffffffffffffffffffff168152602001908152602001600020612ff3565b9050919050565b60008060009054906101000a900473ffffffffffffffffffffffffffffffffffffffff16905090565b606060108054600181600116156101000203166002900480601f0160208091040260200160405190810160405280929190818152602001828054600181600116156101000203166002900480156121d75780601f106121ac576101008083540402835291602001916121d7565b820191906000526020600020905b8154815290600101906020018083116121ba57829003601f168201915b5050505050905090565b3373ffffffffffffffffffffffffffffffffffffffff168273ffffffffffffffffffffffffffffffffffffffff16141561221a57600080fd5b80600560003373ffffffffffffffffffffffffffffffffffffffff1673ffffffffffffffffffffffffffffffffffffffff16815260200190815260200160002060008473ffffffffffffffffffffffffffffffffffffffff1673ffffffffffffffffffffffffffffffffffffffff16815260200190815260200160002060006101000a81548160ff0219169083151502179055508173ffffffffffffffffffffffffffffffffffffffff163373ffffffffffffffffffffffffffffffffffffffff167f17307eab39ab6107e8899845ad3d59bd9653f200f220920489ca2b5937696c3183604051808215151515815260200191505060405180910390a35050565b601360009054906101000a900473ffffffffffffffffffffffffffffffffffffffff1673ffffffffffffffffffffffffffffffffffffffff1663fe01ff628a8a8a8a8a8a8a8a8a6040518a63ffffffff1660e01b8152600401808a600260200280838360005b8381101561239c578082015181840152602081019050612381565b5050505090500189600260200280838360005b838110156123ca5780820151818401526020810190506123af565b505050509050018860026000925b8184101561241e5782846020020151600260200280838360005b8381101561240d5780820151818401526020810190506123f2565b5050505090500192600101926123d8565b9250505087600260200280838360005b8381101561244957808201518184015260208101905061242e565b5050505090500186600260200280838360005b8381101561247757808201518184015260208101905061245c565b5050505090500185600260200280838360005b838110156124a557808201518184015260208101905061248a565b5050505090500184600260200280838360005b838110156124d35780820151818401526020810190506124b8565b5050505090500183600260200280838360005b838110156125015780820151818401526020810190506124e6565b5050505090500182600260200280838360005b8381101561252f578082015181840152602081019050612514565b505050509050019950505050505050505050602060405180830381600087803b15801561255b57600080fd5b505af115801561256f573d6000803e3d6000fd5b505050506040513d602081101561258557600080fd5b8101908080519060200190929190505050612608576040517f08c379a00000000000000000000000000000000000000000000000000000000081526004018080602001828103825260128152602001807f736f6c7574696f6e206e6f742076616c6964000000000000000000000000000081525060200191505060405180910390fd5b6000898989898989898989604051602001808a600260200280838360005b83811015612641578082015181840152602081019050612626565b5050505090500189600260200280838360005b8381101561266f578082015181840152602081019050612654565b505050509050018860026000925b818410156126c35782846020020151600260200280838360005b838110156126b2578082015181840152602081019050612697565b50505050905001926001019261267d565b9250505087600260200280838360005b838110156126ee5780820151818401526020810190506126d3565b5050505090500186600260200280838360005b8381101561271c578082015181840152602081019050612701565b5050505090500185600260200280838360005b8381101561274a57808201518184015260208101905061272f565b5050505090500184600260200280838360005b8381101561277857808201518184015260208101905061275d565b5050505090500183600260200280838360005b838110156127a657808201518184015260208101905061278b565b5050505090500182600260200280838360005b838110156127d45780820151818401526020810190506127b9565b505050509050019950505050505050505050604051602081830303815290604052805190602001209050600073ffffffffffffffffffffffffffffffffffffffff166015600083815260200190815260200160002060010160009054906101000a900473ffffffffffffffffffffffffffffffffffffffff1673ffffffffffffffffffffffffffffffffffffffff16146128d6576040517f08c379a00000000000000000000000000000000000000000000000000000000081526004018080602001828103825260168152602001807f536f6c7574696f6e20616c726561647920757365642e0000000000000000000081525060200191505060405180910390fd5b6128e18c8c83612915565b505050505050505050505050565b6128fa848484611858565b61290684848484613001565b61290f57600080fd5b50505050565b61291d613f63565b60405180604001604052808481526020018573ffffffffffffffffffffffffffffffffffffffff168152509050601481908060018154018082558091505090600182039060005260206000209060020201600090919290919091506000820151816000015560208201518160010160006101000a81548173ffffffffffffffffffffffffffffffffffffffff021916908373ffffffffffffffffffffffffffffffffffffffff16021790555050505080601560008481526020019081526020016000206000820151816000015560208201518160010160006101000a81548173ffffffffffffffffffffffffffffffffffffffff021916908373ffffffffffffffffffffffffffffffffffffffff1602179055509050507f078793128cefb19aac38a33f9e5df39f67716907f6d747e8065545699e0b2b8d8385604051808381526020018273ffffffffffffffffffffffffffffffffffffffff1673ffffffffffffffffffffffffffffffffffffffff1681526020019250505060405180910390a150505050565b6060612ab0826131ea565b612ab957600080fd5b601260008381526020019081526020016000208054600181600116156101000203166002900480601f016020809104026020016040519081016040528092919081815260200182805460018160011615610100020316600290048015612b605780601f10612b3557610100808354040283529160200191612b60565b820191906000526020600020905b815481529060010190602001808311612b4357829003601f168201915b50505050509050919050565b601360009054906101000a900473ffffffffffffffffffffffffffffffffffffffff1681565b6000600560008473ffffffffffffffffffffffffffffffffffffffff1673ffffffffffffffffffffffffffffffffffffffff16815260200190815260200160002060008373ffffffffffffffffffffffffffffffffffffffff1673ffffffffffffffffffffffffffffffffffffffff16815260200190815260200160002060009054906101000a900460ff16905092915050565b6000809054906101000a900473ffffffffffffffffffffffffffffffffffffffff1673ffffffffffffffffffffffffffffffffffffffff163373ffffffffffffffffffffffffffffffffffffffff1614612ce8576040517f08c379a000000000000000000000000000000000000000000000000000000000815260040180806020018281038252601e8152602001807f43616c6c6572206973206e6f74206120636f6e7472616374206f776e6572000081525060200191505060405180910390fd5b600073ffffffffffffffffffffffffffffffffffffffff168173ffffffffffffffffffffffffffffffffffffffff161415612d2257600080fd5b806000806101000a81548173ffffffffffffffffffffffffffffffffffffffff021916908373ffffffffffffffffffffffffffffffffffffffff1602179055507f04dba622d284ed0014ee4b9a6a68386be1a4c08a4913ae272de89199cc68616381604051808273ffffffffffffffffffffffffffffffffffffffff1673ffffffffffffffffffffffffffffffffffffffff16815260200191505060405180910390a150565b600080612dd48361204a565b90508073ffffffffffffffffffffffffffffffffffffffff168473ffffffffffffffffffffffffffffffffffffffff161480612e4357508373ffffffffffffffffffffffffffffffffffffffff16612e2b84611576565b73ffffffffffffffffffffffffffffffffffffffff16145b80612e545750612e538185612b92565b5b91505092915050565b612e6883838361325c565b612e7283826134d4565b612e7c8282613672565b505050565b612e8b8282613739565b612e958282613672565b612e9e81613951565b5050565b612eab816131ea565b612f1d576040517f08c379a000000000000000000000000000000000000000000000000000000000815260040180806020018281038252601b8152602001807f5468697320746f6b656e494420776173206e6f7420666f756e642e000000000081525060200191505060405180910390fd5b612fc960118054600181600116156101000203166002900480601f016020809104026020016040519081016040528092919081815260200182805460018160011615610100020316600290048015612fb65780601f10612f8b57610100808354040283529160200191612fb6565b820191906000526020600020905b815481529060010190602001808311612f9957829003601f168201915b5050505050612fc48361399d565b613aca565b601260008381526020019081526020016000209080519060200190612fef929190613f93565b5050565b600081600001549050919050565b60006130228473ffffffffffffffffffffffffffffffffffffffff16613b0e565b61302f57600190506131e2565b60008473ffffffffffffffffffffffffffffffffffffffff1663150b7a02338887876040518563ffffffff1660e01b8152600401808573ffffffffffffffffffffffffffffffffffffffff1673ffffffffffffffffffffffffffffffffffffffff1681526020018473ffffffffffffffffffffffffffffffffffffffff1673ffffffffffffffffffffffffffffffffffffffff16815260200183815260200180602001828103825283818151815260200191508051906020019080838360005b8381101561310a5780820151818401526020810190506130ef565b50505050905090810190601f1680156131375780820380516001836020036101000a031916815260200191505b5095505050505050602060405180830381600087803b15801561315957600080fd5b505af115801561316d573d6000803e3d6000fd5b505050506040513d602081101561318357600080fd5b8101908080519060200190929190505050905063150b7a0260e01b7bffffffffffffffffffffffffffffffffffffffffffffffffffffffff1916817bffffffffffffffffffffffffffffffffffffffffffffffffffffffff1916149150505b949350505050565b6000806002600084815260200190815260200160002060009054906101000a900473ffffffffffffffffffffffffffffffffffffffff169050600073ffffffffffffffffffffffffffffffffffffffff168173ffffffffffffffffffffffffffffffffffffffff161415915050919050565b6132658161204a565b73ffffffffffffffffffffffffffffffffffffffff168373ffffffffffffffffffffffffffffffffffffffff16146132e8576040517f08c379a000000000000000000000000000000000000000000000000000000000815260040180806020018281038252602f815260200180614065602f913960400191505060405180910390fd5b600073ffffffffffffffffffffffffffffffffffffffff168273ffffffffffffffffffffffffffffffffffffffff16141561338b576040517f08c379a00000000000000000000000000000000000000000000000000000000081526004018080602001828103825260208152602001807f44657374696e6174696f6e2061646472657373206973206e6f742076616c696481525060200191505060405180910390fd5b61339481613b21565b6133db600460008573ffffffffffffffffffffffffffffffffffffffff1673ffffffffffffffffffffffffffffffffffffffff168152602001908152602001600020613bdf565b613422600460008473ffffffffffffffffffffffffffffffffffffffff1673ffffffffffffffffffffffffffffffffffffffff168152602001908152602001600020613c02565b816002600083815260200190815260200160002060006101000a81548173ffffffffffffffffffffffffffffffffffffffff021916908373ffffffffffffffffffffffffffffffffffffffff160217905550808273ffffffffffffffffffffffffffffffffffffffff168473ffffffffffffffffffffffffffffffffffffffff167fddf252ad1be2c89b69c2b068fc378daa952ba7f163c4a11628f55a4df523b3ef60405160405180910390a4505050565b600061352c6001600660008673ffffffffffffffffffffffffffffffffffffffff1673ffffffffffffffffffffffffffffffffffffffff16815260200190815260200160002080549050613c1890919063ffffffff16565b9050600060076000848152602001908152602001600020549050818114613619576000600660008673ffffffffffffffffffffffffffffffffffffffff1673ffffffffffffffffffffffffffffffffffffffff168152602001908152602001600020838154811061359957fe5b9060005260206000200154905080600660008773ffffffffffffffffffffffffffffffffffffffff1673ffffffffffffffffffffffffffffffffffffffff16815260200190815260200160002083815481106135f157fe5b9060005260206000200181905550816007600083815260200190815260200160002081905550505b600660008573ffffffffffffffffffffffffffffffffffffffff1673ffffffffffffffffffffffffffffffffffffffff16815260200190815260200160002080548091906001900361366b9190614013565b5050505050565b600660008373ffffffffffffffffffffffffffffffffffffffff1673ffffffffffffffffffffffffffffffffffffffff168152602001908152602001600020805490506007600083815260200190815260200160002081905550600660008373ffffffffffffffffffffffffffffffffffffffff1673ffffffffffffffffffffffffffffffffffffffff1681526020019081526020016000208190806001815401808255809150509060018203906000526020600020016000909192909190915055505050565b600073ffffffffffffffffffffffffffffffffffffffff168273ffffffffffffffffffffffffffffffffffffffff1614156137dc576040517f08c379a00000000000000000000000000000000000000000000000000000000081526004018080602001828103825260168152602001807f546865206164647265737320697320696e76616c69640000000000000000000081525060200191505060405180910390fd5b6137e5816131ea565b15613858576040517f08c379a000000000000000000000000000000000000000000000000000000000815260040180806020018281038252601b8152602001807f5468617420746f6b656e496420616c726561647920657869737473000000000081525060200191505060405180910390fd5b816002600083815260200190815260200160002060006101000a81548173ffffffffffffffffffffffffffffffffffffffff021916908373ffffffffffffffffffffffffffffffffffffffff1602179055506138f1600460008473ffffffffffffffffffffffffffffffffffffffff1673ffffffffffffffffffffffffffffffffffffffff168152602001908152602001600020613c02565b808273ffffffffffffffffffffffffffffffffffffffff16600073ffffffffffffffffffffffffffffffffffffffff167fddf252ad1be2c89b69c2b068fc378daa952ba7f163c4a11628f55a4df523b3ef60405160405180910390a45050565b6008805490506009600083815260200190815260200160002081905550600881908060018154018082558091505090600182039060005260206000200160009091929091909150555050565b606060008214156139e5576040518060400160405280600181526020017f30000000000000000000000000000000000000000000000000000000000000008152509050613ac5565b600082905060005b60008214613a0f578080600101915050600a8281613a0757fe5b0491506139ed565b6060816040519080825280601f01601f191660200182016040528015613a445781602001600182028038833980820191505090505b50905060006001830390505b60008614613abd57600a8681613a6257fe5b0660300160f81b82828060019003935081518110613a7c57fe5b60200101907effffffffffffffffffffffffffffffffffffffffffffffffffffffffffffff1916908160001a905350600a8681613ab557fe5b049550613a50565b819450505050505b919050565b6060613b068383604051806020016040528060008152506040518060200160405280600081525060405180602001604052806000815250613ca1565b905092915050565b600080823b905060008111915050919050565b600073ffffffffffffffffffffffffffffffffffffffff166003600083815260200190815260200160002060009054906101000a900473ffffffffffffffffffffffffffffffffffffffff1673ffffffffffffffffffffffffffffffffffffffff1614613bdc5760006003600083815260200190815260200160002060006101000a81548173ffffffffffffffffffffffffffffffffffffffff021916908373ffffffffffffffffffffffffffffffffffffffff1602179055505b50565b613bf760018260000154613c1890919063ffffffff16565b816000018190555050565b6001816000016000828254019250508190555050565b600082821115613c90576040517f08c379a000000000000000000000000000000000000000000000000000000000815260040180806020018281038252601e8152602001807f536166654d6174683a207375627472616374696f6e206f766572666c6f77000081525060200191505060405180910390fd5b600082840390508091505092915050565b6060808690506060869050606086905060608690506060869050606081518351855187518951010101016040519080825280601f01601f191660200182016040528015613cfd5781602001600182028038833980820191505090505b509050606081905060008090506000809050600090505b8851811015613d8257888181518110613d2957fe5b602001015160f81c60f81b838380600101945081518110613d4657fe5b60200101907effffffffffffffffffffffffffffffffffffffffffffffffffffffffffffff1916908160001a9053508080600101915050613d14565b600090505b8751811015613df557878181518110613d9c57fe5b602001015160f81c60f81b838380600101945081518110613db957fe5b60200101907effffffffffffffffffffffffffffffffffffffffffffffffffffffffffffff1916908160001a9053508080600101915050613d87565b600090505b8651811015613e6857868181518110613e0f57fe5b602001015160f81c60f81b838380600101945081518110613e2c57fe5b60200101907effffffffffffffffffffffffffffffffffffffffffffffffffffffffffffff1916908160001a9053508080600101915050613dfa565b600090505b8551811015613edb57858181518110613e8257fe5b602001015160f81c60f81b838380600101945081518110613e9f57fe5b60200101907effffffffffffffffffffffffffffffffffffffffffffffffffffffffffffff1916908160001a9053508080600101915050613e6d565b600090505b8451811015613f4e57848181518110613ef557fe5b602001015160f81c60f81b838380600101945081518110613f1257fe5b60200101907effffffffffffffffffffffffffffffffffffffffffffffffffffffffffffff1916908160001a9053508080600101915050613ee0565b82995050505050505050505095945050505050565b604051806040016040528060008152602001600073ffffffffffffffffffffffffffffffffffffffff1681525090565b828054600181600116156101000203166002900490600052602060002090601f016020900481019282601f10613fd457805160ff1916838001178555614002565b82800160010185558215614002579182015b82811115614001578251825591602001919060010190613fe6565b5b50905061400f919061403f565b5090565b81548183558181111561403a57818360005260206000209182019101614039919061403f565b5b505050565b61406191905b8082111561405d576000816000905550600101614045565b5090565b9056fe46726f6d20706172616d65746572206d75737420626520746865206f776e6572206f662074686520746f6b656e496444657374696e6174696f6e20616464726573732063616e6e6f74206265207468652063757272656e74206f776e65722ea165627a7a72305820312b53564c901b51e34cb3f06faab614a04b1e1622284dc9c4cfbae0b0de8df50029436f6d706c657465204d696e7461626c6520426c6f636b636861696e20546f6b656e68747470733a2f2f73332d75732d776573742d322e616d617a6f6e6177732e636f6d2f756461636974792d626c6f636b636861696e2f63617073746f6e652f",
  "source": "pragma solidity >=0.4.21 <0.6.0;\nimport \"openzeppelin-solidity/contracts/utils/Address.sol\";\nimport \"./Verifier.sol\";\nimport \"./ERC721Mintable.sol\";\n\n// TODO define a contract call to the zokrates generated solidity contract <Verifier> or <renamedVerifier>\n\n\ncontract SquareVerifier is Verifier{}\n\n\n// TODO define another contract named SolnSquareVerifier that inherits from your ERC721Mintable class\ncontract SolnSquareVerifier is  ERC721MintableComplete{\n    SquareVerifier public verifierContract;\n    constructor(address verifierAddress)\n    ERC721MintableComplete() \n    public\n    {\n        verifierContract = SquareVerifier(verifierAddress);\n\n    }\n\n\n\n// TODO define a solutions struct that can hold an index & an address\nstruct Solutions{\n    uint tokenId;\n    address to;\n}\n\n\n// TODO define an array of the above struct\nSolutions[] SolutionsArray;\n\n\n// TODO define a mapping to store unique solutions submitted\nmapping (bytes32 => Solutions) private uniqueSolutions;\n\n\n\n// TODO Create an event to emit when a solution is added\nevent SolutionAdded(uint tokenid,address to);\n\n\n\n// TODO Create a function to add the solutions to the array and emit the event\nfunction AddSolution(address _to, uint _tokenId, bytes32 key)\npublic\n{\n    Solutions memory _soln = Solutions({tokenId:_tokenId,to:_to});\n    SolutionsArray.push(_soln);\n    uniqueSolutions[key] = _soln;\n    emit SolutionAdded(_tokenId,_to);\n}\n\n\nfunction CheckSolMintToken(address _to,uint _tokenId,\n            uint[2] memory a,\n            uint[2] memory a_p,\n            uint[2][2] memory b,\n            uint[2] memory b_p,\n            uint[2] memory c,\n            uint[2] memory c_p,\n            uint[2] memory h,\n            uint[2] memory k,\n            uint[2] memory input)\n            public\n            \n{\n     // check if solution is valid\n    require(verifierContract.verifyTx(a, a_p, b, b_p, c, c_p, h, k, input), \"solution not valid\");\n    bytes32 key = keccak256(abi.encodePacked(a,a_p,b,b_p,c,c_p,h,k,input));\n    require(uniqueSolutions[key].to == address(0),\"Solution already used.\");    \n       \n    AddSolution(_to,_tokenId,key);\n      \n}\n\n\n// TODO Create a function to mint new NFT only after the solution has been verified\n//  - make sure the solution is unique (has not been used before)\n//  - make sure you handle metadata as well as tokenSuplly\nfunction mintToken(address _to, uint _tokenId,\n        uint[2] memory a,\n        uint[2] memory a_p,\n        uint[2][2] memory b,\n        uint[2] memory b_p,\n        uint[2] memory c,\n        uint[2] memory c_p,\n        uint[2] memory h,\n        uint[2] memory k,\n        uint[2] memory input)\n        public\n{\n    bytes32 key = keccak256(abi.encodePacked(a, a_p, b, b_p, c, c_p, h, k, input));\n    require(uniqueSolutions[key].to == address(0), \"The solution is already used.\");\n    require(verifierContract.verifyTx(a, a_p, b, b_p, c, c_p, h, k, input), \"This solution is already used.\");\n    \n    AddSolution(_to, _tokenId, key);\n    super.mint(_to, _tokenId);\n}\n\n\n}\n  \n\n\n\n\n\n\n\n\n\n\n\n\n\n\n\n\n\n\n\n\n\n\n\n\n\n\n",
  "sourcePath": "/Users/daniel/Downloads/Blockchain-Capstone-master/eth-contracts/contracts/SolnSquareVerifier.sol",
  "compiler": {
    "name": "solc",
    "version": "0.5.8+commit.23d335f2.Emscripten.clang"
  },
  "schemaVersion": "3.0.10",
  "updatedAt": "2019-07-08T20:08:25.526Z",
  "devdoc": {
    "methods": {
      "isApprovedForAll(address,address)": {
        "details": "Tells whether an operator is approved by a given owner",
        "params": {
          "operator": "operator address which you want to query the approval of",
          "owner": "owner address which you want to query the approval of"
        },
        "return": "bool whether the given operator is approved by the given owner"
      },
      "setApprovalForAll(address,bool)": {
        "details": "Sets or unsets the approval of a given operator An operator is allowed to transfer all tokens of the sender on their behalf",
        "params": {
          "approved": "representing the status of the approval to be set",
          "to": "operator address to set the approval"
        }
      },
      "supportsInterface(bytes4)": {
        "details": "implement supportsInterface(bytes4) using a lookup table"
      },
      "tokenByIndex(uint256)": {
        "details": "Gets the token ID at a given index of all the tokens in this contract Reverts if the index is greater or equal to the total number of tokens",
        "params": {
          "index": "uint256 representing the index to be accessed of the tokens list"
        },
        "return": "uint256 token ID at the given index of the tokens list"
      },
      "tokenOfOwnerByIndex(address,uint256)": {
        "details": "Gets the token ID at a given index of the tokens list of the requested owner",
        "params": {
          "index": "uint256 representing the index to be accessed of the requested tokens list",
          "owner": "address owning the tokens list to be accessed"
        },
        "return": "uint256 token ID at the given index of the tokens list owned by the requested address"
      },
      "totalSupply()": {
        "details": "Gets the total amount of tokens stored by the contract",
        "return": "uint256 representing the total amount of tokens"
      }
    }
  },
  "userdoc": {
    "methods": {}
  }
}