{
  "contractName": "SquareVerifier",
  "abi": [
    {
      "constant": false,
      "inputs": [
        {
          "name": "a",
          "type": "uint256[2]"
        },
        {
          "name": "a_p",
          "type": "uint256[2]"
        },
        {
          "name": "b",
          "type": "uint256[2][2]"
        },
        {
          "name": "b_p",
          "type": "uint256[2]"
        },
        {
          "name": "c",
          "type": "uint256[2]"
        },
        {
          "name": "c_p",
          "type": "uint256[2]"
        },
        {
          "name": "h",
          "type": "uint256[2]"
        },
        {
          "name": "k",
          "type": "uint256[2]"
        },
        {
          "name": "input",
          "type": "uint256[2]"
        }
      ],
      "name": "verifyTx",
      "outputs": [
        {
          "name": "r",
          "type": "bool"
        }
      ],
      "payable": false,
      "stateMutability": "nonpayable",
      "type": "function"
    },
    {
      "anonymous": false,
      "inputs": [
        {
          "indexed": false,
          "name": "s",
          "type": "string"
        }
      ],
      "name": "Verified",
      "type": "event"
    }
  ],
  "bytecode": "0x608060405234801561001057600080fd5b50611838806100206000396000f3fe608060405234801561001057600080fd5b506004361061002b5760003560e01c8063fe01ff6214610030575b600080fd5b6102d4600480360361028081101561004757600080fd5b8101908080604001906002806020026040519081016040528092919082600260200280828437600081840152601f19601f820116905080830192505050505050919291929080604001906002806020026040519081016040528092919082600260200280828437600081840152601f19601f82011690508083019250505050505091929192908060800190600280602002604051908101604052809291906000905b8282101561013d578382604002016002806020026040519081016040528092919082600260200280828437600081840152601f19601f820116905080830192505050505050815260200190600101906100e9565b50505050919291929080604001906002806020026040519081016040528092919082600260200280828437600081840152601f19601f820116905080830192505050505050919291929080604001906002806020026040519081016040528092919082600260200280828437600081840152601f19601f820116905080830192505050505050919291929080604001906002806020026040519081016040528092919082600260200280828437600081840152601f19601f820116905080830192505050505050919291929080604001906002806020026040519081016040528092919082600260200280828437600081840152601f19601f820116905080830192505050505050919291929080604001906002806020026040519081016040528092919082600260200280828437600081840152601f19601f820116905080830192505050505050919291929080604001906002806020026040519081016040528092919082600260200280828437600081840152601f19601f82011690508083019250505050505091929192905050506102ee565b604051808215151515815260200191505060405180910390f35b60006102f86115fe565b60405180604001604052808c60006002811061031057fe5b602002015181526020018c60016002811061032757fe5b6020020151815250816000018190525060405180604001604052808b60006002811061034f57fe5b602002015181526020018b60016002811061036657fe5b60200201518152508160200181905250604051806040016040528060405180604001604052808c60006002811061039957fe5b60200201516000600281106103aa57fe5b602002015181526020018c6000600281106103c157fe5b60200201516001600281106103d257fe5b6020020151815250815260200160405180604001604052808c6001600281106103f757fe5b602002015160006002811061040857fe5b602002015181526020018c60016002811061041f57fe5b602002015160016002811061043057fe5b6020020151815250815250816040018190525060405180604001604052808960006002811061045b57fe5b602002015181526020018960016002811061047257fe5b6020020151815250816060018190525060405180604001604052808860006002811061049a57fe5b60200201518152602001886001600281106104b157fe5b602002015181525081608001819052506040518060400160405280876000600281106104d957fe5b60200201518152602001876001600281106104f057fe5b60200201518152508160a0018190525060405180604001604052808660006002811061051857fe5b602002015181526020018660016002811061052f57fe5b60200201518152508160e0018190525060405180604001604052808560006002811061055757fe5b602002015181526020018560016002811061056e57fe5b60200201518152508160c00181905250606060026040519080825280602002602001820160405280156105b05781602001602082028038833980820191505090505b50905060008090505b60028110156105f8578481600281106105ce57fe5b60200201518282815181106105df57fe5b60200260200101818152505080806001019150506105b9565b5060006106058284610675565b1415610661577f3f3cfdb26fb5f9f1786ab4f1a1f9cd4c0b5e726cbdfc26e495261731aad44e396040518080602001828103825260228152602001806117eb6022913960400191505060405180910390a1600192505050610668565b6000925050505b9998505050505050505050565b600061067f611673565b61068761089d565b90508060e001515160018551011461069e57600080fd5b6106a66116e2565b6040518060400160405280600081526020016000815250905060008090505b855181101561071d5761070e826107098560e0015160018501815181106106e857fe5b60200260200101518985815181106106fc57fe5b6020026020010151610ed2565b610f66565b915080806001019150506106c5565b50610740818360e0015160008151811061073357fe5b6020026020010151610f66565b90506107698460000151836000015161075c8760200151611019565b6107646110b3565b61117d565b61077857600192505050610897565b61079f826020015185604001516107928760600151611019565b61079a6110b3565b61117d565b6107ae57600292505050610897565b6107d5846080015183604001516107c88760a00151611019565b6107d06110b3565b61117d565b6107e457600392505050610897565b6108308460c00151836060015161081461080f8561080a8a600001518b60800151610f66565b610f66565b611019565b8560a001516108268760800151611019565b8960400151611279565b61083f57600492505050610897565b610881610850828660000151610f66565b85604001516108628760e00151611019565b8560c001516108748960800151611019565b61087c6110b3565b611279565b61089057600592505050610897565b6000925050505b92915050565b6108a5611673565b604051806040016040528060405180604001604052807f0a5ad1bd5456df88c27c0ed3352bd73dc2b794359da6d3632b06c1a7b2e6f7c881526020017f023396e68b844e672dc7cd2b5cecf596ae05df7e86a5184177093555bd825420815250815260200160405180604001604052807f18b54ec0cae1c2153b88da1bf18cf3c926204d9cf1287979dc4ee2dcffad187e81526020017f29848e734c466a57028676a0f33988bcdef696b25a4aea76d6fa6259857b7f41815250815250816000018190525060405180604001604052807f278776a6631c40777b89fd1ad0697818b159ba7b99a6b801385998da71819b7081526020017f027b7ac3d6fe53bc9d969d18ac7e39f3cb47b68573a6ffd1064bd84a710753068152508160200181905250604051806040016040528060405180604001604052807f1817f037cacef4eff160dd1017df2fb559c71bb945377da4ff48884d7d6424fd81526020017f1687d3b680a014f4c45e231854d1ba94fd4306a4fb79ee92dd64472296533722815250815260200160405180604001604052807f29ede4b4667f7cfbb68f05ec7e5642a18c604795a22293e0925edb65cf3664cd81526020017f1c1a7292f99705c35ad35aa176bfb0e2ef7f54d0278201489c292922c61992418152508152508160400181905250604051806040016040528060405180604001604052807f0fc2f17422218acf75e9c83e09664ac546b2a88ac109ece5bb73d54cb772071981526020017f285b270e15385437a8e4cae7aa9858da10c6f9ddb2cfda8132f99d103b2365ed815250815260200160405180604001604052807f16cf768a258f2a87b54acdb0d09a0efb7817431e11ade3fc517918198825571681526020017f1ca9a0b7a6dbc882cbf17a86367ebd87dd805479416f7885702007cdaed0a516815250815250816060018190525060405180604001604052807f295e9967d028ed158c3f79f3f530747dd4f2caeb4f724dfff97d22b3ce0db4ac81526020017f1b77115691f3efc1e2aeb3bc1a6641cd1d779e113f1b1f7e5dbae84996bd79138152508160800181905250604051806040016040528060405180604001604052807f2fc34a60157825a5a519e0d12ab3cb02e028f2c9bc3edeff9560d8dc1f02662c81526020017f2b99b8ea2d2bfefbf37a4761c7fb6ba354f89cd327f0449a1b4cec293698bc4a815250815260200160405180604001604052807f1533ec8c64c2378667c33fc08f38529e746c7f1b63205d3aeb88a0909d5107d781526020017f0a065a8b942c77b9764d9c104014e871c7c217e2349e90f0f82d71706bd1f72f8152508152508160a00181905250604051806040016040528060405180604001604052807f016fe9e67f7d05b482e15f2c4aabafdf1a3b8b92a3b83332f124420d914863eb81526020017f035f4c8dec0895900d21d5ae19a86fd9b5c524641ac502cd70e68445f329d91a815250815260200160405180604001604052807f2572ef7d4a7b59fde4826c6f60c7a9d09927fd9db11fe5ce57f2978058c4fd4781526020017f27556848c6e9a9f2e26e5a9e7549d66f72a0f672fb5437fb4bdd9e3c143acf898152508152508160c001819052506003604051908082528060200260200182016040528015610d7357816020015b610d606116fc565b815260200190600190039081610d585790505b508160e0018190525060405180604001604052807f10ff6676f1bf6392bbe57aa492971d9bb29bb71f637acdeb1fbe101c7e84570581526020017f2590b5947ada604fd3c41e48a8b96cdd76b024a2adea92126abc7e35ecad115f8152508160e00151600081518110610de257fe5b602002602001018190525060405180604001604052807f23ca2cb7a028f9c2b6c22bb663c7e133767eef8d8ab51392ee0ede9458ecf34381526020017f14ac167b5eb0ce9c5ff34bffb9ab96a909ce2469df1262cd20fbd3161bdf34bb8152508160e00151600181518110610e5357fe5b602002602001018190525060405180604001604052807f21346c6670e6454be246882c7b0b95a68de0025297ae5906ea4567412c83af7f81526020017f0b35a6013007eed691abbc0471c6b31e1fc1609fba726db4342db4bc1ea39e4e8152508160e00151600281518110610ec457fe5b602002602001018190525090565b610eda6116e2565b610ee2611716565b836000015181600060038110610ef457fe5b602002018181525050836020015181600160038110610f0f57fe5b6020020181815250508281600260038110610f2657fe5b6020020181815250506000606083608084600060076107d05a03f190508060008114610f5157610f53565bfe5b5080610f5e57600080fd5b505092915050565b610f6e6116e2565b610f76611738565b836000015181600060048110610f8857fe5b602002018181525050836020015181600160048110610fa357fe5b602002018181525050826000015181600260048110610fbe57fe5b602002018181525050826020015181600360048110610fd957fe5b602002018181525050600060608360c084600060066107d05a03f19050806000811461100457611006565bfe5b508061101157600080fd5b505092915050565b6110216116e2565b60007f30644e72e131a029b85045b68181585d97816a916871ca8d3c208c16d87cfd4790506000836000015114801561105e575060008360200151145b156110825760405180604001604052806000815260200160008152509150506110ae565b604051806040016040528084600001518152602001828560200151816110a457fe5b0683038152509150505b919050565b6110bb61175a565b604051806040016040528060405180604001604052807f198e9393920d483a7260bfb731fb5d25f1aa493335a9e71297e485b7aef312c281526020017f1800deef121f1e76426a00665e5c4479674322d4f75edadd46debd5cd992f6ed815250815260200160405180604001604052807f090689d0585ff075ec9e99ad690c3395bc4b313370b38ef355acdadcd122975b81526020017f12c85ea5db8c6deb4aab71808dcb408fe3d1e7690c43d37b4ce6cc0166fa7daa815250815250905090565b6000606060026040519080825280602002602001820160405280156111bc57816020015b6111a96116fc565b8152602001906001900390816111a15790505b509050606060026040519080825280602002602001820160405280156111fc57816020015b6111e9611780565b8152602001906001900390816111e15790505b509050868260008151811061120d57fe5b6020026020010181905250848260018151811061122657fe5b6020026020010181905250858160008151811061123f57fe5b6020026020010181905250838160018151811061125857fe5b602002602001018190525061126d82826113a9565b92505050949350505050565b6000606060036040519080825280602002602001820160405280156112b857816020015b6112a56116fc565b81526020019060019003908161129d5790505b509050606060036040519080825280602002602001820160405280156112f857816020015b6112e5611780565b8152602001906001900390816112dd5790505b509050888260008151811061130957fe5b6020026020010181905250868260018151811061132257fe5b6020026020010181905250848260028151811061133b57fe5b6020026020010181905250878160008151811061135457fe5b6020026020010181905250858160018151811061136d57fe5b6020026020010181905250838160028151811061138657fe5b602002602001018190525061139b82826113a9565b925050509695505050505050565b600081518351146113b957600080fd5b60008351905060006006820290506060816040519080825280602002602001820160405280156113f85781602001602082028038833980820191505090505b50905060008090505b8381101561159e5786818151811061141557fe5b60200260200101516000015182600060068402018151811061143357fe5b60200260200101818152505086818151811061144b57fe5b60200260200101516020015182600160068402018151811061146957fe5b60200260200101818152505085818151811061148157fe5b60200260200101516000015160006002811061149957fe5b60200201518260026006840201815181106114b057fe5b6020026020010181815250508581815181106114c857fe5b6020026020010151600001516001600281106114e057fe5b60200201518260036006840201815181106114f757fe5b60200260200101818152505085818151811061150f57fe5b60200260200101516020015160006002811061152757fe5b602002015182600460068402018151811061153e57fe5b60200260200101818152505085818151811061155657fe5b60200260200101516020015160016002811061156e57fe5b602002015182600560068402018151811061158557fe5b6020026020010181815250508080600101915050611401565b506115a76117a6565b60006020826020860260208601600060086107d05a03f1905080600081146115ce576115d0565bfe5b50806115db57600080fd5b6000826000600181106115ea57fe5b602002015114159550505050505092915050565b6040518061024001604052806116126116fc565b815260200161161f6116fc565b815260200161162c611780565b81526020016116396116fc565b81526020016116466116fc565b81526020016116536116fc565b81526020016116606116fc565b815260200161166d6116fc565b81525090565b604051806103200160405280611687611780565b81526020016116946116fc565b81526020016116a1611780565b81526020016116ae611780565b81526020016116bb6116fc565b81526020016116c8611780565b81526020016116d5611780565b8152602001606081525090565b604051806040016040528060008152602001600081525090565b604051806040016040528060008152602001600081525090565b6040518060600160405280600390602082028038833980820191505090505090565b6040518060800160405280600490602082028038833980820191505090505090565b604051806080016040528061176d6117c8565b815260200161177a6117c8565b81525090565b60405180608001604052806117936117c8565b81526020016117a06117c8565b81525090565b6040518060200160405280600190602082028038833980820191505090505090565b604051806040016040528060029060208202803883398082019150509050509056fe5472616e73616374696f6e207375636365737366756c6c792076657269666965642ea165627a7a72305820150911888c4007b7a0a4fe6f9bc9de4252b5c59b02912a3d29e0f4101b8b082e0029",
  "source": "pragma solidity >=0.4.21 <0.6.0;\nimport \"openzeppelin-solidity/contracts/utils/Address.sol\";\nimport \"./Verifier.sol\";\nimport \"./ERC721Mintable.sol\";\n\n// TODO define a contract call to the zokrates generated solidity contract <Verifier> or <renamedVerifier>\n\n\ncontract SquareVerifier is Verifier{}\n\n\n// TODO define another contract named SolnSquareVerifier that inherits from your ERC721Mintable class\ncontract SolnSquareVerifier is  ERC721MintableComplete{\n    SquareVerifier public verifierContract;\n    constructor(address verifierAddress)\n    ERC721MintableComplete() \n    public\n    {\n        verifierContract = SquareVerifier(verifierAddress);\n\n    }\n\n\n\n// TODO define a solutions struct that can hold an index & an address\nstruct Solutions{\n    uint tokenId;\n    address to;\n}\n\n\n// TODO define an array of the above struct\nSolutions[] SolutionsArray;\n\n\n// TODO define a mapping to store unique solutions submitted\nmapping (bytes32 => Solutions) private uniqueSolutions;\n\n\n\n// TODO Create an event to emit when a solution is added\nevent SolutionAdded(uint tokenid,address to);\n\n\n\n// TODO Create a function to add the solutions to the array and emit the event\nfunction AddSolution(address _to, uint _tokenId, bytes32 key)\npublic\n{\n    Solutions memory _soln = Solutions({tokenId:_tokenId,to:_to});\n    SolutionsArray.push(_soln);\n    uniqueSolutions[key] = _soln;\n    emit SolutionAdded(_tokenId,_to);\n}\n\n\nfunction CheckSolMintToken(address _to,uint _tokenId,\n            uint[2] memory a,\n            uint[2] memory a_p,\n            uint[2][2] memory b,\n            uint[2] memory b_p,\n            uint[2] memory c,\n            uint[2] memory c_p,\n            uint[2] memory h,\n            uint[2] memory k,\n            uint[2] memory input)\n            public\n            \n{\n     // check if solution is valid\n    require(verifierContract.verifyTx(a, a_p, b, b_p, c, c_p, h, k, input), \"solution not valid\");\n    bytes32 key = keccak256(abi.encodePacked(a,a_p,b,b_p,c,c_p,h,k,input));\n    require(uniqueSolutions[key].to == address(0),\"Solution already used.\");    \n       \n    AddSolution(_to,_tokenId,key);\n      \n}\n\n\n// TODO Create a function to mint new NFT only after the solution has been verified\n//  - make sure the solution is unique (has not been used before)\n//  - make sure you handle metadata as well as tokenSuplly\nfunction mintToken(address _to, uint _tokenId,\n        uint[2] memory a,\n        uint[2] memory a_p,\n        uint[2][2] memory b,\n        uint[2] memory b_p,\n        uint[2] memory c,\n        uint[2] memory c_p,\n        uint[2] memory h,\n        uint[2] memory k,\n        uint[2] memory input)\n        public\n{\n    bytes32 key = keccak256(abi.encodePacked(a, a_p, b, b_p, c, c_p, h, k, input));\n    require(uniqueSolutions[key].to == address(0), \"The solution is already used.\");\n    require(verifierContract.verifyTx(a, a_p, b, b_p, c, c_p, h, k, input), \"This solution is already used.\");\n    \n    AddSolution(_to, _tokenId, key);\n    super.mint(_to, _tokenId);\n}\n\n\n}\n  \n\n\n\n\n\n\n\n\n\n\n\n\n\n\n\n\n\n\n\n\n\n\n\n\n\n\n",
  "sourcePath": "/Users/daniel/Downloads/Blockchain-Capstone-master/eth-contracts/contracts/SolnSquareVerifier.sol",
  "compiler": {
    "name": "solc",
    "version": "0.5.8+commit.23d335f2.Emscripten.clang"
  },
  "schemaVersion": "3.0.10",
  "updatedAt": "2019-07-08T20:08:25.533Z",
  "devdoc": {
    "methods": {}
  },
  "userdoc": {
    "methods": {}
  }
}